:020000040802F0
:1000000000060030ED0D0208653D0E088103020870
:10001000ED3C0E08E53C0E08E93C0E08EF0D020829
:10002000EF0D0208EF0D0208EF0D0208A59215086A
:10003000EF0D0208EF0D0208EF0D0208EF0D0208A8
:10004000EF0D0208EF0D0208EF0D0208EF0D020898
:10005000EF0D0208EF0D020889091608B509160808
:10006000E10916080D0A1608390A160809A015082C
:1000700031A015085DA0150889A01508B5A01508C0
:10008000DDA0150809A115082D9C1508890A0E0880
:10009000EF0D0208990A0E08EF0D0208650A16080E
:1000A000EF0D0208C90B1608EF0D0208DD0B16084C
:1000B000E10B160895B91508F50B1608B9A815082F
:1000C000E9A8150819A9150849A91508A5B315081F
:1000D000BDB315083D0B1608510B1608650B160825
:1000E000C90A1608EF0D0208EF0D02081D0C1608CC
:1000F0002D0C1608410C1608450C160835A11508DC
:10010000EF0D020855AD1508090C1608D5B31508F2
:10011000790B1608EF0D0208EF0D0208EF0D02082B
:1001200061A1150889A11508B5A11508E1A1150857
:100130000DA21508EF0D0208EF0D0208EF0D0208E1
:10014000EF0D0208EF0D0208EF0D0208EF0D020897
:1001500035A2150861A215088DA215088D0B160889
:10016000EF0D0208EF0D0208EF0D0208EF0D020877
:10017000EF0D0208D1051608EF0D0208EF0D020879
:10018000EF0D0208EF0D0208A10B1608B50B1608BB
:10019000EDB31508EF0D0208EF0D0208EF0D020890
:1001A000EF0D0208EF0D0208EF0D0208EF0D020837
:1001B000EF0D0208EF0D0208EF0D0208EF0D020827
:1001C000EF0D0208EF0D0208EF0D0208EF0D020817
:1001D000EF0D0208BD051608EF0D0208EF0D02082D
:1001E000EF0D0208EF0D0208EF0D0208EF0D0208F7
:1001F000EF0D0208EF0D0208EF0D0208EF0D0208E7
:10020000EF0D0208EF0D0208EF0D0208EF0D0208D6
:10021000EF0D0208EF0D0208EF0D0208EF0D0208C6
:10022000EF0D0208EF0D0208EF0D0208EF0D0208B6
:10023000EF0D0208EF0D0208EF0D02084D9C1508A6
:10024000EF0D0208D59D1508FD9D1508299E15087E
:10025000559E1508819E1508AD9E1508D99E150856
:10026000059F1508EF0D0208EF0D0208EF0D0208BB
:10027000EF0D0208EF0D0208EF0D0208EF0D020866
:10028000EF0D0208EF0D0208EF0D0208EF0D020856
:10029000EF0D0208EF0D0208EF0D0208EF0D020846
:1002A00005420208AD7B02080D2703084DA503088F
:1002B00081FE0308F5090408DD3804081944040820
:1002C000A191040831B70408512505080D1B060843
:1002D00009470808714A0808E15808087590080895
:1002E000A193080875A308081DD00808793A0908E1
:1002F0002D420908894509084DBD090865E209082C
:1003000029010B08E14F0B08955C0B08A18B0B082A
:10031000F5940B08FD640D08CDC40D08A90A0E085C
:10032000E50C0E08FD110E0891340E087D4C0E08E8
:100330002107100819251008A5291008292B1008D5
:10034000C9391008894B1008B94B1008CD85100821
:100350004DD210083D0E1108C1121108394611087E
:100360000DBD1108ED44130881781308EDB413088E
:10037000A157140859621408E99514082D9B140814
:10038000EFF30383EFF30982EFF30881DFF814D072
:100390002DE9FE4F684601F005F8BDE8FE4F8D4699
:1003A00070470000C4300030F1EE101AA0EC200AB3
:1003B00001607047A0EC108A704700BF81F00041D7
:1003C00002E000BF83F0004330B54FEA41044FEA3A
:1003D000430594EA050F08BF90EA020F1FBF54EAD5
:1003E000000C55EA020C7FEA645C7FEA655C00F071
:1003F000E2804FEA5454D4EB5555B8BF6D420CDD42
:100400002C4480EA020281EA030382EA000083EAC4
:10041000010180EA020281EA0303362D88BF30BD64
:1004200011F0004F4FEA01314FF4801C4CEA1131BA
:1004300002D0404261EB410113F0004F4FEA033319
:100440004CEA133302D0524263EB430394EA050FA4
:1004500000F0A780A4F10104D5F1200E0DDB02FA13
:100460000EFC22FA05F2801841F1000103FA0EF2A7
:10047000801843FA05F359410EE0A5F120050EF16D
:10048000200E012A03FA0EFC28BF4CF0020C43FA9E
:1004900005F3C01851EBE37101F0004507D54FF0AB
:1004A000000EDCF1000C7EEB00006EEB0101B1F5FB
:1004B000801F1BD3B1F5001F0CD349085FEA300041
:1004C0004FEA3C0C04F101044FEA445212F5800F4C
:1004D00080F09A80BCF1004F08BF5FEA500C50F1E9
:1004E000000041EB045141EA050130BD5FEA4C0CCC
:1004F000404141EB0101013C28BFB1F5801FE9D229
:1005000091F0000F04BF01460020B1FA81F308BF4B
:100510002033A3F10B03B3F120020CDA0C3208DD17
:1005200002F1140CC2F10C0201FA0CF021FA02F1F2
:100530000CE002F11402D8BFC2F1200C01FA02F162
:1005400020FA0CFCDCBF41EA0C019040E41AA2BF87
:1005500001EB0451294330BD6FEA04041F3C1CDA4F
:100560000C340EDC04F11404C4F1200220FA04F06F
:1005700001FA02F340EA030021FA04F345EA030119
:1005800030BDC4F10C04C4F1200220FA02F001FADB
:1005900004F340EA0300294630BD21FA04F029465D
:1005A00030BD94F0000F83F4801306BF81F48011F6
:1005B0000134013D4EE77FEA645C18BF7FEA655C69
:1005C00029D094EA050F08BF90EA020F05D054EA3B
:1005D000000C04BF1946104630BD91EA030F1EBF40
:1005E0000021002030BD5FEA545C05D14000494144
:1005F00028BF41F0004130BD14F580043CBF01F537
:10060000801130BD01F0004545F0FE4141F470011C
:100610004FF0000030BD7FEA645C1ABF19461046F7
:100620007FEA655C1CBF0B46024650EA013406BFF8
:1006300052EA033591EA030F41F4002130BD00BFB7
:1006400090F0000F04BF0021704730B54FF4806474
:1006500004F132044FF000054FF0000150E700BFF5
:1006600090F0000F04BF0021704730B54FF4806454
:1006700004F1320410F0004548BF40424FF0000141
:100680003EE700BF42004FEAE2014FEA31014FEA84
:1006900002701FBF12F07F4393F07F4F81F06051D3
:1006A000704732F07F4208BF704793F07F4F04BF1E
:1006B00041F40021704730B54FF4607401F00045FB
:1006C00021F000411CE700BF50EA010208BF70475B
:1006D00030B54FF000050AE050EA010208BF70474C
:1006E00030B511F0004502D5404261EB41014FF4B5
:1006F000806404F132045FEA915C3FF4D8AE4FF0BD
:1007000003025FEADC0C18BF03325FEADC0C18BF9F
:10071000033202EBDC02C2F1200300FA03FC20FAF0
:1007200002F001FA03FE40EA0E0021FA02F114443D
:10073000BDE600BF80F0004002E000BF81F0004154
:1007400042001FBF5FEA410392EA030F7FEA226C77
:100750007FEA236C6AD04FEA1262D2EB1363C1BF07
:10076000D218414048404140B8BF5B42192B88BF76
:10077000704710F0004F40F4000020F07F4018BF99
:10078000404211F0004F41F4000121F07F4118BFB9
:10079000494292EA030F3FD0A2F1010241FA03FC61
:1007A00010EB0C00C3F1200301FA03F100F0004349
:1007B00002D5494260EB4000B0F5000F13D3B0F111
:1007C000807F06D340084FEA310102F10102FE2A80
:1007D00051D2B1F1004F40EBC25008BF20F00100F0
:1007E00040EA03007047490040EB0000013A28BF8F
:1007F000B0F5000FEDD2B0FA80FCACF1080CB2EB12
:100800000C0200FA0CF0AABF00EBC250524218438F
:10081000BCBFD0401843704792F0000F81F4000134
:1008200006BF80F400000132013BB5E74FEA410307
:100830007FEA226C18BF7FEA236C21D092EA030F73
:1008400004D092F0000F08BF0846704790EA010FED
:100850001CBF0020704712F07F4F04D1400028BF1A
:1008600040F00040704712F100723CBF00F50000FC
:10087000704700F0004343F0FE4040F40000704732
:100880007FEA226216BF08467FEA236301464202DE
:1008900006BF5FEA412390EA010F40F480007047F1
:1008A0004FF0000304E000BF10F0004348BF404297
:1008B0005FEA000C08BF704743F0964301464FF0D3
:1008C00000001CE050EA010208BF70474FF000032F
:1008D0000AE000BF50EA010208BF704711F0004370
:1008E00002D5404261EB41015FEA010C02BF844640
:1008F0000146002043F0B64308BFA3F18053A3F59F
:100900000003BCFA8CF2083AA3EBC25310DB01FAE5
:1009100002FC634400FA02FCC2F12002BCF1004F69
:1009200020FA02F243EB020008BF20F001007047FA
:1009300002F1200201FA02FCC2F1200250EA4C004E
:1009400021FA02F243EB020008BF20EADC70704794
:100950007BB972B90029BEBF00204FF0004106E00C
:1009600008BF00281CBF6FF000414FF0FF3000F0BF
:100970003BBAADF1080C6DE904CE002909DB002B70
:100980001ADB00F0C9F8DDF804E0DDE9022304B069
:100990007047404261EB4101002B1BDB00F0BCF8CB
:1009A000DDF804E0DDE9022304B0404261EB4101DF
:1009B000524263EB43037047524263EB430300F040
:1009C000ABF8DDF804E0DDE9022304B0404261EB5E
:1009D00041017047524263EB430300F09DF8DDF89C
:1009E00004E0DDE9022304B0524263EB43037047A5
:1009F00053B94AB9002908BF00281CBF4FF0FF3186
:100A00004FF0FF3000F0F0B9ADF1080C6DE904CE05
:100A100000F082F8DDF804E0DDE9022304B070475D
:100A2000430803F05533C01A830803F0333300F052
:100A30003330184400EB101000F00F3000EB0020B2
:100A400000EB0040000E704780EA104080EA102062
:100A500080EA101046F6961300F00F0043FA00F0FB
:100A600000F00100704700BF08B502460B4643EC9A
:100A7000172BB5EEC07BF1EE10FA03D4BDE80840A9
:100A800000F02AB8B1EE477B51EC170B00F024F8C8
:100A9000404261EB410108BD9FED0B6B07EE900AF0
:100AA0009FED0B5BB7EEE77A27EE066BBCEEC66BED
:100AB000B8EE464BA4EE457BFCEEC77B16EE101A53
:100AC00017EE900A704700BF000000000000F03DE4
:100AD000000000000000F0419FED0B6B41EC170B94
:100AE0009FED0B5B27EE066BBCEEC66BB8EE464B7C
:100AF000A4EE457BFCEEC77B16EE101A17EE900AAB
:100B0000704700BFAFF30080000000000000F03D20
:100B1000000000000000F0412DE9F047089D044668
:100B20008E46002B4DD18A42944669D9B2FA82F2A0
:100B300052B101FA02F3C2F1200120FA01F10CFADC
:100B400002FC41EA030E94404FEA1C48210CBEFB14
:100B5000F8F61FFA8CF708FB16E341EA034306FB9D
:100B600007F199420AD91CEB030306F1FF3080F02C
:100B70001F81994240F21C81023E63445B1AA4B279
:100B8000B3FBF8F008FB103344EA034400FB07F71B
:100B9000A7420AD91CEB040400F1FF3380F00A815C
:100BA000A74240F207816444023840EA0640E41B51
:100BB00000261DB1D4400023C5E900433146BDE8FD
:100BC000F0878B4209D9002D00F0EF800026C5E99F
:100BD000000130463146BDE8F087B3FA83F6002EB7
:100BE0004AD18B4202D3824200F2F980841A61EB2F
:100BF000030301209E46002DE0D0C5E9004EDDE74D
:100C000002B9FFDEB2FA82F2002A40F09280A1EB34
:100C10000C014FEA1C471FFA8CFE0126200CB1FB89
:100C2000F7F307FB131140EA01410EFB03F0884282
:100C300008D91CEB010103F1FF3802D2884200F20F
:100C4000CB804346091AA4B2B1FBF7F007FB1011A1
:100C500044EA01440EFB00FEA64508D91CEB04043F
:100C600000F1FF3102D2A64500F2BB800846A4EB9A
:100C70000E0440EA03409CE7C6F12007B34022FA85
:100C800007FC4CEA030C20FA07F401FA06F31C43B4
:100C9000F9404FEA1C4900FA06F3B1FBF9F8200CC1
:100CA0001FFA8CFE09FB181140EA014108FB0EF007
:100CB000884202FA06F20BD91CEB010108F1FF3A57
:100CC00080F08880884240F28580A8F10208614463
:100CD000091AA4B2B1FBF9F009FB101144EA014171
:100CE00000FB0EFE8E4508D91CEB010100F1FF341C
:100CF0006CD28E456AD90238614440EA0840A0FBB4
:100D00000294A1EB0E01A142C846A64656D353D089
:100D10005DB1B3EB080261EB0E0101FA07F722FAAD
:100D200006F3F1401F43C5E9007100263146BDE8D6
:100D3000F087C2F12003D8400CFA02FC21FA03F339
:100D4000914001434FEA1C471FFA8CFEB3FBF7F0BA
:100D500007FB10360B0C43EA064300FB0EF69E42DF
:100D600004FA02F408D91CEB030300F1FF382FD278
:100D70009E422DD9023863449B1B89B2B3FBF7F620
:100D800007FB163341EA034106FB0EF38B4208D9F9
:100D90001CEB010106F1FF3816D28B4214D9023E3A
:100DA0006144C91A46EA004638E72E46284605E758
:100DB0000646E3E61846F8E64B45A9D2B9EB020829
:100DC00064EB0C0E0138A3E74646EAE7204694E7B9
:100DD0004046D1E7D0467BE7023B614432E73046EC
:100DE00009E76444023842E7704700BF02E000F0C0
:100DF00000F8FEE772B63A4880F30888394880F375
:100E0000098839484EF60851CEF20001086040F2D8
:100E10000000CCF200004EF63471CEF20001086002
:100E2000BFF34F8FBFF36F8F40F20000C0F2F000AE
:100E30004EF68851CEF200010860BFF34F8FBFF32A
:100E40006F8F4FF00000E1EE100A4EF63C71CEF2CB
:100E500000010860062080F31488BFF36F8F3EF115
:100E6000BFFE3EF161FE3DF1C7FD4FF055301F4919
:100E70001B4A91423CBF41F8040BFAE71C49194A4E
:100E800091423CBF41F8040BFAE71A491A4A1B4B3E
:100E90009A423EBF51F8040B42F8040BF8E70020D9
:100EA0001749184A91423CBF41F8040BFAE73EF15A
:100EB00079FE3DF125FE144C144DAC4203DA54F892
:100EC000041B8847F9E703F0EBF8114C114DAC42D5
:100ED00003DA54F8041B8847F9E73EF161BE0000CD
:100EE0000006003000220030000002080000003040
:100EF00000060030F0401A0800220030CC2E0030EE
:100F0000D02E0030D8F20130A0020208800302087F
:100F100080030208800302082DE9F04F2DED108AAE
:100F2000C1F80CD0D0F80CD0BDEC108ABDE8F08F21
:100F3000002383F311882846A04700203DF146FB9B
:100F4000FEE73DF1E7F900DFFEE7000070B54FF086
:100F5000FF0C4CF4E06C1CEA11541DBF1CEA135545
:100F600094EA0C0F95EA0C0F00F0DEF82C4481EAAD
:100F7000030621EA4C5123EA4C5350EA013518BFCD
:100F800052EA033541F4801143F4801338D0A0FBBA
:100F900002CE4FF00005E1FB02E506F00042E0FB67
:100FA00003E54FF00006E1FB03569CF0000F18BF6D
:100FB0004EF0010EA4F1FF04B6F5007F64F5407415
:100FC00004D25FEA4E0E6D4146EB060642EAC621A8
:100FD00041EA55514FEAC52040EA5E504FEACE2E15
:100FE000B4F1FD0C88BFBCF5E06F1ED8BEF1004F18
:100FF00008BF5FEA500E50F1000041EB045170BD94
:1010000006F0004646EA010140EA020081EA0301D7
:10101000B4EB5C04C2BFD4EB0C0541EA045170BDD3
:1010200041F480114FF0000E013C00F3AB8014F14D
:10103000360FDEBF002001F0004170BDC4F1000496
:10104000203C35DA0C341BDC04F11404C4F1200517
:1010500000FA05F320FA04F001FA05F240EA020072
:1010600001F0004221F0004110EBD37021FA04F6A8
:1010700042EB06015EEA430E08BF20EAD37070BD62
:10108000C4F10C04C4F1200500FA04F320FA05F0C1
:1010900001FA04F240EA020001F0004110EBD370C3
:1010A00041F100015EEA430E08BF20EAD37070BD33
:1010B000C4F1200500FA05F24EEA020E20FA04F30C
:1010C00001FA05F243EA020321FA04F001F00041BB
:1010D00021FA04F220EA020000EBD3705EEA430E2C
:1010E00008BF20EAD37070BD94F0000F0FD101F05B
:1010F0000046400041EB010111F4801F08BF013C94
:10110000F7D041EA060195F0000F18BF704703F0D1
:101110000046520043EB030313F4801F08BF013D58
:10112000F7D043EA0603704794EA0C0F0CEA135514
:1011300018BF95EA0C0F0CD050EA410618BF52EACE
:101140004306D1D181EA030101F000414FF00000D4
:1011500070BD50EA410606BF1046194652EA4306E2
:1011600019D094EA0C0F02D150EA013613D195EA56
:101170000C0F05D152EA03361CBF104619460AD19E
:1011800081EA030101F0004141F0FE4141F47001A8
:101190004FF0000070BD41F0FE4141F4780170BD98
:1011A0004FEA410212F5001215D211D56FF478738F
:1011B000B3EB625212D94FEAC12343F0004343EA32
:1011C000505311F0004F23FA02F018BF404270470D
:1011D0004FF00000704750EA013005D111F0004097
:1011E00008BF6FF0004070474FF00000704700BF2D
:1011F0004FEA4102B2F1E04324BFB3F5001CDCF139
:10120000FE5C0DD901F0004C4FEAC0024CEA507070
:10121000B2F1004F40EB830008BF20F0010070479F
:1012200011F0804F21D113F13872BCBF01F00040A2
:10123000704741F480114FEA5252C2F11802C2F1D4
:10124000200C10FA0CF320FA02F018BF40F0010055
:101250004FEAC1234FEAD32303FA0CFC40EA0C0007
:1012600023FA02F34FEA4303CCE77FEA625307D144
:1012700050EA01331EBF4FF0FE4040F4400070477B
:1012800001F0004040F0FE4040F40000704700BF15
:1012900001F0FF01102A2BDB10F0070F08D010F827
:1012A000013B013A8B422DD010F0070F42B3F6D12B
:1012B000F0B441EA012141EA014122F007047FF044
:1012C00000070023F0E80256083C85EA010586EA9B
:1012D000010685FA47F5A3FA87F586FA47F6A5FAD7
:1012E00087F68EB9EED1F0BC01F0FF0102F00702E3
:1012F00032B110F8013B013A83EA010313B1F8D18E
:101300000020704701387047002D06BF354603386E
:10131000073815F0010F07D1013015F4807F02BFA7
:10132000013015F4C03F0130F0BC0138704700BFF8
:10133000EC46A0E8F05F4FF000007047B0E8F05FC7
:10134000E546080008BF0120704700BF10F8012BD8
:1013500011F8013B012A28BF9A42F7D0D01A7047F2
:10136000034613F8012B002AFBD1181A01387047E5
:1013700010B5044620461CB154F80C3B013300D193
:1013800010BD0822012100F069FB54F80C0C54F840
:10139000082C14F8041C121AB2FBF1F200F05EFBE8
:1013A000E8E70000C26AD0E9003112F0040F2DE92D
:1013B000F04118BF0B46A6B00021594C0426012766
:1013C0000291CDE90003D0064CBF03F1200203F1E6
:1013D00068020392DA690399D2099B6902F0040258
:1013E0001B880A4303F47F4303924FF0E022A3F5E6
:1013F0003E41D2F8882D02F4A002B2F5A00F04BF3E
:10140000012202924B424B410493464D03A82C60AB
:1014100000F022FA04220121434800F01FFB0422BD
:10142000012102A800F01AFB10220121019800F00E
:1014300015FB0098202201210C3000F00FFB0198D1
:1014400004220121103000F009FB0422012103A82D
:1014500000F004FB01980C220121143000F0FEFA88
:101460000C220121009800F0F9FA029BDA071FD53F
:10147000009BDB6ADB064ED415A8FEF79BFFDDF868
:1014800004C00DF1140E0CF120030CF16008186873
:10149000083353F8041C7246434503C29646F6D1FE
:1014A000DCF8603025938422012105A800F0D6FAEB
:1014B00000F0C0F8FFF75CFF4FF0E023D3F8003DE9
:1014C00003F47023B3F5402F0ED0184B05A88DF808
:1014D0001C60059314338DF8287006934FF0FF338A
:1014E000CDE90833FFF744FF2B68A34206D0104B29
:1014F0000422012105A8059300F0B0FA00F022FAB9
:10150000002882D0049B1BB1019A93690233936136
:1015100026B0BDE8F08105A8FEF746FFC3E700BF8F
:10152000ED55CEACD02E0030488F160828ED00E0E7
:10153000ACCE55ED08B552203BF10EF9144BD3F863
:10154000902042F08042C3F89020D3F8902022F0FF
:101550008042C3F89020D3F89020D3F8E82042F0DE
:101560008042C3F8E820D3F8102142F08042C3F84B
:1015700010216D22D3F81031064BDA604FF0FF32A4
:101580001A620D221A600122034B1A7008BD00BFB7
:101590000044025800780040FC30003037B50E4D52
:1015A0002A78202A15D10D4C0D4823680D4918447E
:1015B00001923DF13DFD23680021019A2033094845
:1015C0002970236043F172FD03B0BDE830403EF165
:1015D00075BA03B030BD00BFC4300030EC3000300D
:1015E000C04D1A08C6300030014B1868704700BF64
:1015F000FCFF1B08014B0248C01A7047C04D1A0877
:1016000000001C0800487047C04D1A080749002216
:10161000074B5B1A9A4201D30120704751F8040B23
:10162000013001D10432F5E700207047C04D1A089F
:1016300000001C085A4B2DE9F74F1F680224594B34
:1016400007F56A57DFF880911B781837DFF87C813F
:10165000554D1F44DFF878A13CF14CFDA9EB080B78
:1016600006460EB13A2C41D9A9EB0803B3EB070C9F
:1016700024D4DFF860E1661C4C4A0C21F6B2AEEBD4
:101680000200614360456FDD681801276A506244BB
:1016900007721F464260DB1B77D445490234454F31
:1016A000E4B2CA1B9A424FF00C0206FB02F266DD5E
:1016B000A91801203B44AF5008724B603B2C66D800
:1016C0000C2301225C432B191A724FF0FF322A516E
:1016D0005A60394B1B782BB1384B1B682B60384B49
:1016E0001B686B60304803B0BDE8F08FF369B069E8
:1016F00053450ABF334BF31AA3EB0A0380B101939E
:101700003DF178FE019B58B122460C2101344A4339
:101710000121E4B2A8180172B169A9500D314160EC
:101720000C2001211F4400FB04FC5F4505EB0C026B
:1017300045F80C6006F1380C1172C2F804C004EBD5
:10174000010204F10204D2B2E4B200FB02F205EBA2
:1017500002000172F169A95019444160AED23046CD
:101760003CF1D8FC06467CE705EB010C4FF0010884
:1017700007446A508CF80880CCF804E08BE7AB187B
:101780000120AF501872596098E7344696E701235C
:1017900085F8CC324FF0FF33C5E9B13399E700BF8C
:1017A000EC300030C430003004220030D02E003045
:1017B00000000430D8F2013000220030F030003058
:1017C000E83000300022003000001C08C04D1A082C
:1017D00000060030D8F201300C4B1B7810B50BB965
:1017E000FFF7A8FE00230A490A48CA699206FCD5F9
:1017F0004A6A1C5CD2B2944205D10133DBB20E2B93
:10180000F3D1002010BD0023EFE700BFFC30003013
:10181000007800404C8F160838B5084B04461B78FA
:101820000BB9FFF787FEE4B2054DAC62EB695B06CE
:1018300000D538BD3EF142F9F8E700BFFC3000307A
:101840000078004010B5441E14F8010F00B910BD17
:10185000FFF7E2FFF8E7000070B502680446EFF317
:101860000581D9205369C9B2C2F042FA294B1B78CD
:10187000A3B1294B94E8030083E803002748FFF74E
:10188000E1FF6368B3B12648FFF7DCFF2548FFF7A7
:10189000D9FFFFF7A1FF2448FFF7D4FF234D2B7892
:1018A0003BB124681CB120463DF1A4FD20B90023C2
:1018B0002B7070BD1E48E7E720461E4E3DF1AEFD81
:1018C00000F2145084421FD220463DF1A7FD306043
:1018D0002046194E3DF1B6FD04F5E053834217D979
:1018E00020463DF1AFFD30600023144A1360144AD6
:1018F0001370FFF78BFE0028D9D03EF1DFF80120EE
:10190000BDE870403DF110BCA4F214533360DFE732
:101910003360E9E7C5300030F43000305C8F1608E2
:10192000618F1608728F160834B71708002200302E
:101930006C8F1608F0300030E8300030EC300030AA
:10194000C4300030284B1A7870B542B12748FFF7F1
:1019500079FF274B5868003818BF012070BD254A11
:10196000107800283CD0244E244C33682448254D60
:101970001A1D21782D1A0A44AA4205D3224A4FF093
:10198000FF31D161202222702278D2B103F12001EF
:101990008D4205D81F2A9FBF1B4AD3612022227087
:1019A0002022194918443DF143FB32682378002175
:1019B0001548134420222170336043F177FB3EF138
:1019C0007DF833689D4207D90F4920220F48CB612B
:1019D0003DF12EFB3EF172F800203DF1A5FBB8E78A
:1019E00001221A70BAE700BFC5300030B88F160860
:1019F000F430003000220030EC300030C4300030D1
:101A0000C04D1A0800001C08C6300030E0FF1B085B
:101A10002DE9F84307460E460024DFF83890DFF83A
:101A20003880B44201D1BDE8F88324B1230702D144
:101A30004846FFF707FF3D5D01342B0905F00F0510
:101A400018F80300FFF7E8FE18F80500FFF7E4FEBA
:101A5000E7E700BF34B71708C88F1608474B1B7855
:101A60002DE9F74F07460E4690465BB1022925D077
:101A7000042938D0012902D11146FFF7C9FF404897
:101A8000FFF7E0FE3F4B1B78002B4ED03E4A00256F
:101A90003E4BA2EB030938E037F81430ADF80430C0
:101AA00024B1620702D12846FFF7CCFE013402219F
:101AB00001A8FFF7ADFFA045EED1E0E70024304DCF
:101AC000F9E757F82430019324B1A30702D128463F
:101AD000FFF7B8FE042101340DEB0100FFF798FF7A
:101AE000A045EED1CBE70024254DF9E7FFF756FDE1
:101AF000022E1DD0042E2CD0012E06D12378795D24
:101B00005A1C2270224AD1540135A8450DD0214BD0
:101B1000214C1B682278043313444B45E6D31C4BFD
:101B20004FF0FF32DA612023237003B0BDE8F08F5D
:101B30002378DFF85CA05A1C22703A780AF8032058
:101B4000FFF72CFD23785A1C227000220AF803208C
:101B5000DAE74FF0000ADFF838B022783B78511C02
:101B600023FA0AF30AF1080A21700BF80230FFF792
:101B700015FDBAF1200FF0D1C6E700BFC530003027
:101B800034B717080022003000001C08C04D1A08A6
:101B9000C6300030EC300030C430003013B58368FC
:101BA0000A46012B01D05B0616D50C4B93F95A1847
:101BB00091B103F50051D1F8BC40B3F95C18B4F908
:101BC0000630994208DD064B40210093054BB3F0E7
:101BD00071F8002002B010BD0120FBE70061003069
:101BE000EE8F1608DC8F16082DE9F041836890B05F
:101BF00004460D46012B02D0990640F1B6805C4E9A
:101C000096F95A38BBB106F50052B6F95C38D2F8ED
:101C1000BC20B2F90A1003F10A02914203DD40F23E
:101C20008D32934207DC534B2A4620212046B3F0E5
:101C300041F8002096E096F94938022B05D14E4B29
:101C40002A4620212046B3F035F8B6F81C3841F674
:101C50005832A3F57A739BB293420FD8474F06F6DA
:101C60008402D7F8003292ED007AD3ED097AB4EE0F
:101C7000E77AF1EE10FA03DD414BD5E7414BD3E7AC
:101C800006F68802D3ED0A7A92ED007AB4EEE77A8E
:101C9000F1EE10FAF0DCB6F95638002B01DC3A4BC5
:101CA000C2E7A7F5005393F8C4230D2A04D84FF4D4
:101CB0002153D340DA0708D4DFF80081D8F87C0537
:101CC000ADF07EFD18B9314BAEE7314BACE7314892
:101CD00012F08CF8012806D1D7F80802AAF074FD9A
:101CE00040B101280FD098F8711511F010011FD0E4
:101CF000294B99E7294B0093294B2A46202120465E
:101D0000B2F0D8FF95E798F8D431DB070ED519214A
:101D1000244867F0E3FD48B1D6F83468192121481A
:101D200067F002FE8642DEDD1F4BE4E71F4BE2E771
:101D300003AE2E2204A8039143F1B8F932233246B0
:101D40001B49D7F80402A9F043F810B9194B0096C3
:101D5000D3E7322332461849D7F80002A7F04AF9F0
:101D60000028F3D010B0BDE8F0810120FAE700BFF1
:101D700000610030F88F16080B90160800910030B3
:101D800043901608339016085D9016089290160836
:101D900072901608B4A7003002911608CD9016086C
:101DA000A890160828460030EC901608DD9016081A
:101DB000179116081B9116082D9116080081003006
:101DC00070B58EB00E4600212E22054602A8019164
:101DD00043F16CF9322201A909488EF021FC044636
:101DE00040B99DF9043043B9064B074A31462846AD
:101DF000B3F050F920460EB070BD01ABF5E700BF5F
:101E0000FC7F003034911608AEF5160807B504487B
:101E1000ACF098FA00F0010003B05DF804FB00BFDD
:101E2000E49200302DE9F043DFF87891044699B050
:101E30000D46D9F8580503681B69984780461BF082
:101E400043F8002107462E220CA80B9143F12EF9EE
:101E500032230BAA414638461AF020FB064648B901
:101E60000BAB434A29462046B3F014F9304619B06B
:101E7000BDE8F0833F488CF047FCB8F1000F0BD071
:101E8000A9F5A04016F05CF980B93B4A29462046E6
:101E90000026B3F0FFF8E9E710F0060FE6D0A9F549
:101EA000A04016F04DF908B9344AEFE703A93846C7
:101EB00019F046F928B19DF80D305B0601D5304A7E
:101EC000E4E7DFF8E4800023D8ED007AF5EEC07A8D
:101ED000F1EE10FA35DD0DF120090893099305AAFA
:101EE0000A9307AB04A93846019306ABCDF80090DE
:101EF0001AF0D4FD48463CF071FFD8ED007AB4EEFC
:101F0000E70AF1EE10FA01DB1E4ABFE79DED057A04
:101F1000F4EEC77AF1EE10FA01D81B4AB6E79DED50
:101F2000047AF4EEC77AF1EE10FA01D8174AADE759
:101F30009DED067AF4EEC77AF1EE10FA01D8144A54
:101F4000A4E707F22C41134806F0CCF9074608B184
:101F5000114A9BE711490F4806F0C4F9002885D0C3
:101F60000F4A294620463E46B3F094F87EE700BF6C
:101F70004C91160828680030559116086C91160887
:101F800092911608A0911608B5911608CB911608E3
:101F9000E191160800310030F5911608D492003016
:101FA00012921608008100307869003008B5064B9F
:101FB00093F871359B0704D5044AB3F06BF8002001
:101FC00008BD0120FCE700BF0081003034921608F4
:101FD00070B583688EB005460E4613F0210F03D10D
:101FE000012420460EB070BDB4F084FB04460028E6
:101FF000F6D000212E2202A8019143F157F8204685
:10200000322201A9B4F03EFB04460028E8D101AB1E
:10201000024A31462846B3F03DF8E2E7AEF516082D
:1020200070B50C4C05460E46D4F8580503685B693C
:10203000984710B10124204670BDA4F5A04016F0C9
:1020400091F804460028F5D1034A31462846B3F0FA
:1020500021F8F0E700810030449216082DE9704E17
:10206000424E8FB082468B46D6F87C3593F87C4042
:1020700084B97AF0F3F820217BF0EEF9A8B17AF078
:10208000EDF81F217BF0E8F940B1394A5946504636
:10209000B3F000F820460FB0BDE8708E7AF0DEF89D
:1020A000A5217BF0D9F90028EFD196F84E3503F041
:1020B0001403142B01D12F4AE8E72F4B1D780DB1E3
:1020C0002E4AE3E759465046B4F062F80446002829
:1020D000E0D02E22294602A8019542F1E7FFD6F86A
:1020E0007C0501AA322103681B689847044630B971
:1020F00001AB234A59465046B2F0CCFFCAE7DAF8A2
:1021000008303BB9DAF80030594650465B6B9847C7
:102110000446BFE759465046FFF766FD81465946DB
:102120005046FFF74DFE09EA00005946C4B250463A
:10213000FFF73CFF594604405046FFF749FF594618
:1021400004405046FFF72AFD594604405046FFF729
:1021500067FF594604405046B3F098F8594604408A
:102160005046B4F02DF8044094E700BF00810030E1
:10217000589216087292160874BB0030860E170823
:102180008A92160808B5FFF769FF054A92F84C15C0
:1021900060F3041182F84C15024A907108BD00BF2B
:1021A0000081003085B00030F7B505460E46B2F02C
:1021B000B5FD044648B3AB68012B01D0990724D57F
:1021C0001348ACF0BFF8C205C0F30723C0F30027E3
:1021D0001BD49B0719D50E48ACF0C2F80D4BD3EDBC
:1021E0006A7AF8EEE77A30EE670ADFED0B7AB0EE46
:1021F000C00AB4EEE70AF1EE10FA06DD3C46074BE2
:10220000324602212846B2F055FD204603B0F0BD0B
:10221000E4920030009100300000C8429892160805
:10222000F8B504460F46B3F05BF90546A368012BE9
:1022300001D0DB060BD52046FFF7E8FD064630B996
:102240003546044B3A4610212046B2F033FD28466D
:10225000F8BD00BFAC92160813B504460191B2F068
:10226000C9FC78B1A368019A012B01D01B0609D5DE
:10227000054B93F8893A2BB12046044B8021B2F0EC
:1022800019FD002002B010BD00810030C092160878
:1022900038B50D4D0446D5F80802AAF095FA012884
:1022A00010D0D5F80802AAF08FFA022804D02046F0
:1022B000BDE83840B2F0A0BC044811F097FD0128F9
:1022C000F5D138BD0020FCE700910030B4A7003004
:1022D000F0B5114C85B006460F46D4F8B4306A46C6
:1022E0000093D4F8B8300193D4F8BC300293D4F8FA
:1022F000C0300393B3F0BAFE054639463046B2F01B
:102300007FFE94F84C35284060F3C303C3F3C0004C
:1023100084F84C3505B0F0BD008100302DE9F8435C
:10232000DFF8AC90064626480F468CF0EDF90446DF
:10233000D9F85805DFF89C8003681B699847054663
:1023400030B914F0060F03D1D9F88C35022B09D11E
:1023500039463046B2F006FD054618B9002488F823
:1023600007400AE039463046FFF75CFD0446002886
:10237000F4D02DB9012388F807302046BDE8F88352
:10238000B368012B01D01B07F4D50E4827F0A8F93C
:102390000028EFD00C4BB02193F8882501FB0232C6
:1023A00003F54053B2F89623B3F94A389A42E1DD77
:1023B000064B3A4608213046B2F07CFCCEE700BF1F
:1023C00028680030A833003000310030D49216085D
:1023D0000081003085B0003070B588B005460E46EB
:1023E000B2F080FE044688B3AB68012B01D09A0698
:1023F0002CD51B4B93F81C2342B393F8FC329B075C
:1024000024D507AA06A9174888F026FBF0B19DED50
:10241000077ADFED157AB4EEE77AF1EE10FA15D807
:10242000B7EEC77A0024202128468DED027BDDED32
:10243000067AFDEEE77A08A3D3E90023CDED007A12
:10244000CDE90423094B3246B2F034FC204608B0F3
:1024500070BD00BFAFF30080000000403333E33FA6
:1024600000910030086B00309A99193FE4921608E9
:102470002DE9F3410F4605461AF026FD804619F076
:1024800079F8044640B9564A01212846B2F002FEC6
:10249000204602B0BDE8F081524E3946D6F85805C4
:1024A00003689B699847044658B9D6F858050368ED
:1024B0009B6B98474C4A034601212846B2F0EAFD3F
:1024C000E6E7AB68002BE3D0012B01D0D80623D57B
:1024D000D8EDED7A98EDEC0A20EE270A3FF1BCFE2C
:1024E000DFED427A424B20EE270ADFED427AB3F964
:1024F0001C3820EE270A07EE903AF8EEE77AB4EEA1
:10250000E70AF1EE10FA07DD3B4B012210212846C5
:10251000B2F0D0FB0024BBE7AB68012B01D09906D9
:1025200009D596F87125D20603D5344B0122202116
:10253000EDE7012B01D05B0628D5012F18D0D6F886
:10254000BC302F48B3F9083000EE103AB8EEC00A9C
:1025500000F05EFBB5EEC00AF1EE10FA24DD294B67
:102560000122402128460093274BB2F0A3FBD1E77C
:10257000D6F8580503681B689847042806D0D6F893
:10258000580503681B6898471428D8D11F4B1B684F
:10259000586D03681B6A98470128014619D11C4AE7
:1025A0002846B2F077FDB5E7D6F8580503685B69B1
:1025B000984730B1D6F8BC30B3F90830002BE5DDD0
:1025C000CDE7D6F8580503681B6898470B28DDD17E
:1025D000F0E73946284602B0BDE8F041B3F0C0B993
:1025E000109316080081003021931608E02E6542F2
:1025F000006100300000C8423593160802911608A9
:1026000000310030EE8F16083D93160808AC0030FC
:102610004993160870B505460E46FFF703FC084BB4
:1026200004463146D8712846FFF7FAFC00283146A7
:10263000284608BF0024B3F00BFD204070BD00BF4A
:1026400085B000302DE9F041524F3B78002B40F02F
:102650009E80514C0126D4F87C553E7095F87C50F4
:102660001DB13B702846BDE8F081B3F067FE05461A
:1026700030B94A4A3870137843F001031370F1E718
:102680006CF052FF31466BF0A3FFA4F5A04007F0B9
:1026900005FE434B1E710B26013E60F017F960F0FA
:1026A0004FF816F0FF06F7D13E4801F0FDF81AF09A
:1026B0000BFCD0F87423C4F8A42590F83C34DA0756
:1026C00053D419F0BFFF6CF02FFF3C216CF0D2FC0B
:1026D00004F2645300221A600021324801F072F9BA
:1026E000304815F02DFD01462F48B0F0D1FE2F4B9C
:1026F0002F4E01211B68586D03681B68984796F898
:102700005833A6F5C0406FF3410386F8583315F0EF
:1027100055F80121D4F87C05AEF030F86CF004FFD8
:102720008046D4F8580503681B689847A6F54053BF
:102730000146404693F8E0276CF00EF9A6F5C0403C
:1027400007F09EFD68F000FB67F068FE00233B7019
:10275000C1F03AFBB4F84E35C6F8140223F40873FE
:1027600043F02003A4F84E357CE79B07B4D43146F0
:102770000C4805F059FE0F48ABF0F2FDDFED0E7A84
:1027800004F2645320EE270A83ED000AA4E7002533
:1027900068E700BFFD30003000810030A4B0003099
:1027A00085B0003000310030347E003008AC00309D
:1027B00000910030E49200300AD7233C2DE9F04329
:1027C000374D87B0D5F87C3593F87C30002B64D03A
:1027D00052B1012908D195F94C35002B04DB0024B6
:1027E000204607B0BDE8F083B3F058FE0446002849
:1027F000F5D01AF069FB074625F070FA8046384696
:1028000018F004FED8B198F92430022B17D1002615
:102810004FF00009F1B203AA3846CDF80C900191AF
:10282000CDF81090CDF8149019F040FC019918B132
:1028300003AA404624F06EFE0136032EEAD1194B5E
:10284000D5F85805984224D10CF04AFA01211648CF
:1028500007F026FF0121144807F060FE0021D5F89B
:102860007C05ADF08BFF11483EF0C0FE6CF05CFEC5
:1028700000216BF0ADFE0E4B00211B68586D036804
:102880001B68984795F84E356FF3451385F84E351C
:10289000A6E718460CF028FAD8E70124A0E700BF05
:1028A0000081003050A300300031003048A00030DB
:1028B00008AC003001488BF0EFBF00BF2868003043
:1028C00000F5A04008B590F84C35C3F340128A4299
:1028D0000BD061F3451380F84C3531B16CF024FE18
:1028E0000F21BDE808406CF0C5BB08BD70B500F510
:1028F000A04605460C46D6F88C358B4212D00129ED
:1029000011D0022916D059B96CF00EFE1B216CF0C3
:10291000B1FB0D4A05F5A64006213C306FF0EEFEF6
:10292000C6F88C4570BD6CF0FFFD1A216CF0A2FB5F
:10293000064AEFE7012101F045F86CF0F5FD1D2195
:102940006CF098FB024AE5E7A4931608B9931608C1
:10295000B493160800F5A04210B592F871350C46F4
:1029600003F00101A14209D064F3000382F871353C
:10297000DB0704D407F094F8024B9C7210BD07F0FB
:1029800057FAF9E785B0003000F5A04090F87135AE
:1029900061F3410380F87135014B1973704700BF33
:1029A00085B0003010B5044679F058FC20217AF04B
:1029B00053FD04F5A043003893F84E2518BF0120BD
:1029C00060F3820283F84E2510BD000010B5044666
:1029D00068F0BAF9036F04F5A04204F5C040D2F8DC
:1029E0007C259360D0F800229363D0F80422C2F8CB
:1029F000E431D0F800020368BDE810405B6C184772
:102A0000F8B500F5A04504462DED028BD5F87C35D0
:102A100093F87C30002B7AD095F94C35002B76DB7F
:102A200000F5C04696F8743E002B70D1D5F85805D5
:102A300003685B699847002869D1364BD3F858057D
:102A400003681B6898470B2861D0D6F804329FEDC5
:102A5000327AD3ED927AF0EEE77AF4EEC77AF1EEBD
:102A600010FA54D5D5F87C053C306FF01DF90346BB
:102A7000B7EE001A9A20DFED290A93ED000A36F02E
:102A800035FAB5EEC00AF1EE10FA40DD04F5C340A8
:102A90006430ABF071FCB0EEC00ADFED217AB4EE29
:102AA000E70AF1EE10FA32D504F50057D6F8000225
:102AB000D7EDED7A0368B8EEE78ADB6F9847DFED74
:102AC000197A38EE400AB0EEC00AB4EEE70AF1EE29
:102AD00010FA1CD5D7F8B83340F2E63203F2F313FC
:102AE000934214D8D5F87C059FED0F0AACF0B2FEE6
:102AF000D5F87C3504F5C6509FED0B0AD3ED0B0AD3
:102B00001030BDEC028BBDE8F84099F073BBBDEC12
:102B1000028BF8BD0081003000000034000000008E
:102B2000000070420000FA430AD7233C00F5A040A1
:102B300008B5D0F87C0503689B689847F6EE007AE4
:102B400020EE270AB5EEC00AF1EE10FA48BF9FED5D
:102B5000010A08BD0000000038B500F5C045044674
:102B6000B7EE001A6F2004F5A044DFED110A2DED39
:102B7000028BD5F8003293ED2B0A36F0B7F9D4F872
:102B80007C05B0EE408AD5F80452036805F59875C7
:102B90009B68984738EE400ADFED067A2846BDEC80
:102BA000028B20EE270ABDE8384095F02BBB00BF12
:102BB0000000000000007A4400F51053D2ED007AC6
:102BC00091ED006AD3ED005AD3ED036A26EEE77A61
:102BD00067EEA57AA6EE257AE6EE267A81ED007AF2
:102BE000C2ED007A7047000000F58043B3F9043E5F
:102BF00043B900F54050B0F956080028B8BF40422C
:102C000080B2704783EAE370A0EBE370F8E700005E
:102C100000F5A04330B52DED028B93F8711583B00C
:102C2000044611F0010105D09FED2C0A03B0BDEC64
:102C3000028B30BD93F84D3501915B07F4D5DFED84
:102C4000288A04F54055DFED250A4C20B0EE681ABD
:102C500036F04CF94FF4C8720199B0EE408AB5F9DC
:102C60005E0836F0ABF9A5F85E08204614F0CAFEFF
:102C7000B5F95E3807EE900AB8EEE77A07EE903ABB
:102C8000F8EEE77A77EE676AB4EEE68AF1EE10FACC
:102C90000DD5204638EE668AFFF7A6FF07EE900AAC
:102CA000B8EEE70A20EE088A88EE260ABEE777EE3D
:102CB000877AB4EEE78AF1EE10FAB5DDB5F9563849
:102CC00038EE678A78EEE77A00EE103AB8EEC00A7E
:102CD00020EE088A88EE270AA8E700BF000000005F
:102CE00000007A44704700000020704700207047C1
:102CF0000020704700207047002070470020704778
:102D000000207047002070477047000000F5A04089
:102D1000D0F8580503681B6818470000034808608E
:102D20003B21117008221A60704700BF149A1608E0
:102D300000F5C0409FED0A7AD0F810320120D3EDA3
:102D40000E7AF4EEC77A9FED077AF1EE10FAB8BF6B
:102D5000D3ED047A67EE877AC1ED007A704700BF41
:102D6000000000340AD7233C00F5E04393F82932F1
:102D7000002B14BF1B2003200B1A584258417047E8
:102D800000F5A04090F87105C0F380007047000086
:102D900000F5A04010B5D0F858050C4603685B6DEF
:102DA000984707EE900A9FED057A0120F8EE677AC2
:102DB00067EE877AC4ED007A10BD00BF0AD7233CC6
:102DC00000F5A04010B5D0F858050C4603681B6DFF
:102DD000984707EE900A9FED057A0120F8EEE77A12
:102DE00067EE877AC4ED007A10BD00BF0AD7233C96
:102DF00000F5A04010B5D0F858050C4603689B6D4F
:102E00009847DFED047A012020EE270A84ED000ABE
:102E100010BD00BF0AD7233C98F068BA7FF054BABF
:102E2000B3F04CBC8AF0C8BE16F07EB904F0EABE1E
:102E300084F012BF7BF054BD67F0D2BE33F082BB8A
:102E40006BF030BD1EF0B0BA7CF050B978F0F6BD32
:102E500076F034B914F046BA14F09ABF07F0DABD30
:102E600016F0FEB806F072BE06F0C0BB06F0D2BA8D
:102E70005FF066BC14F0C2BB1CF0E2BC80F074BE14
:102E80008BF014BB11F040BFFFF7BABD14F066BB66
:102E9000B0F01CBF87F0FEBD14F014BE04F018B8EB
:102EA00014F0E6BA14F064BA79F00CB961F0C8BC59
:102EB00028F0FABB03F0FAB97CF028B907F060BD3E
:102EC00005F0D4BA07F0B0BE06F048BB07F0DEBA92
:102ED00014F098B9FFF77ABD33F0C8BF00F5C040D1
:102EE00008B5D0F81002A9F0BFF8012008BD000015
:102EF00010B400F5DE4400F5A0400C34D0F85805BD
:102F0000A04203D15DF8044B09F056BC00205DF8E7
:102F1000044B704700F5DE4300F5A0400C33D0F8B9
:102F20005805984201D109F05DBC704706F0FABF20
:102F30000BF068BA0BF008BC0BF09CBB00F5A0438B
:102F400010B504462DED028BD3F85805B0EE408A3B
:102F500003685B6A984720B900242046BDEC028BC9
:102F600010BD04F5EA409FED070A543028EE000A30
:102F70000DF0C6FD04460028EED001210248FFF7FF
:102F80009FFCEAE70000C842003100301FB500F5A1
:102F9000A04304460391D3F8580503685B6A984739
:102FA00060B10023DFED060A04F5EA400399B0EEB4
:102FB000600A1A46543000930EF0F4FB04B010BDC2
:102FC0000000000038B500F5A04304462DED028B4B
:102FD000D3F85805B0EE408A0368DB699847054688
:102FE00048B104F5C0449FED060AD4F8080228EE63
:102FF000000AA9F05FFD2846BDEC028B38BD00BF7A
:103000000000C84230B50C4600F5A04105462DED44
:10301000028BD1F8580589B0B0EE408A0168F0EE15
:10302000608A0392496A0293884728B39FED140A85
:1030300005F5EA409DF83C1094ED006A68EE800AC0
:10304000D4ED016A543094ED027A26EE006A66EE01
:10305000806A019127EE407A9DF8381028EE000A28
:10306000029B009105A9039A8DED056ACDED066AD4
:103070008DED077A0EF0B4FA09B0BDEC028B30BDCD
:103080000000C84200F5A04370B50646D3F85805C5
:103090008EB00D46036814465B6A9847D8B3DFEDDF
:1030A0001F7A002395ED006A06F5EA40D5ED016A26
:1030B00008AA95ED027A26EE276A66EEA76ADFED8A
:1030C000180A27EE677A00938DED056AB0EE600A64
:1030D00094ED006A05A9CDED066A5430D4ED016A7D
:1030E00026EE276A8DED077A94ED027A66EEA76ADE
:1030F0008DED086A67EE677ACDED0B0ACDED096AB2
:10310000CDED0C0ACDED0A7ACDED0D0ACDE90133F6
:103110000BAB0EF047FC0EB070BD00BF0000C84204
:1031200000000000F0B51C4600F5A04307460E461F
:1031300015462DED028BD3F858058FB0B0EE408ABE
:103140000368F0EE608A5B6A984700284CD09FEDD8
:10315000280A07F5EA4096ED006A08AAD6ED016A4A
:1031600068EE800A96ED027A26EE006A66EE806AC4
:103170009DF8603027EE407A05A98DED056A543040
:1031800095ED006ACDED066A8DED077A26EE006AB0
:10319000D5ED016A95ED027A66EE806A8DED086ADA
:1031A00027EE407A94ED006A0293CDED096A26EE8F
:1031B000006A9DF85C30D4ED016A8DED0A7A94EDD9
:1031C000027A66EE806A019327EE407A9DF85830C5
:1031D00028EE000A8DED0B6A00930BABCDED0C6A67
:1031E0008DED0D7A0EF0DEFB0FB0BDEC028BF0BD65
:1031F0000000C84200F5A04370B50646D3F8580554
:1032000086B00C4603685B6A9847054610B39FED8D
:10321000136A0023D4ED006A012294ED017A06F5C9
:10322000EA40D4ED027A66EE866A27EE067ADFED92
:103230000C0A67EEC67A03A9B0EE600A5430CDEDF1
:10324000036A8DED047ACDED057ACDE900321A4698
:103250000EF0B2F9284606B070BD00BF0000C842AB
:1032600000000000F0B5144600F5A04207460D46E8
:103270002DED028BD2F858058DB0B0EE408A026871
:10328000F0EE608A0593526A90470646C8B39FEDF8
:103290001F0A012295ED006A07F5EA40D5ED016AA3
:1032A00068EE800A95ED027A26EE006A66EE806A84
:1032B000029227EE407A9DF854208DED066A06A909
:1032C00094ED006A5430CDED076A8DED087A26EE54
:1032D000006AD4ED016A94ED027A66EE806A01928A
:1032E00027EE407A9DF8502028EE000A059B0092B8
:1032F00009AA8DED096ACDED0A6A8DED0B7A0EF003
:10330000F1F830460DB0BDEC028BF0BD0000C842B4
:103310000A4A0B4692F94C25002A05DA00228A60F7
:103320004A600A600120704700F5C040D0F80022D2
:10333000483207CA83E80700F4E700BF0081003085
:1033400000F5A04370B506462DED048BD3F8580563
:1033500088B0F0EE408A0368B0EE609AF0EE419AD1
:103360005B6AB0EE618A9847054600B39FED120A8A
:1033700000244FF07E5304A829EE801A079469EECA
:10338000000A049328EE800A0694059439F084FF1D
:103390009FED0A0A06F5EA40002301AA28EE000A7A
:1033A00004A954300194029403940DF041FF28467F
:1033B00008B0BDEC048B70BD35FA8E3C0000C842ED
:1033C00038B5574B0446002540F8043B7FF09CF885
:1033D00004F110001DF060FB04F160001FF02EFDF1
:1033E00004F5007067F0AEF904F52A7026F094F841
:1033F00004F5C6601BF0ECFD04F5F36023F02AFE33
:1034000004F52E6032F03EFE04F5A25018307EF036
:1034100031FE04F5A950083066F030F904F5BE50CD
:1034200018307BF0EDFC04F5C05014301EF0DCF8D1
:1034300004F5C650103099F057FD04F5FB500430E8
:10344000A1F0B4FC04F5FC5067F016FD04F5FE5045
:10345000143080F02FFA04F5805304F5FF50314A00
:1034600083F8E45F04F5FF531430043313605EF017
:10347000D7FF04F501502946083017F08DFB04F5FD
:103480001D50083096F01EFD04F51D50143084F0D8
:10349000F3FB04F51E5097F0FBF904F53E500C3099
:1034A0009DF056FA04F5425024309CF05DFE04F580
:1034B000435008309FF0ECFA04F54550A0F0FEFDB3
:1034C00004F546502430A1F025FA04F547502C307D
:1034D00095F036F904F54950383016F009F804F53E
:1034E0004F501430A2F0E0FD04F55C5028308BF012
:1034F00077F804F5405304F55F5083F8E0570A4D20
:103500003830A2F01BFD2B6813B10848C0F02EFC28
:103510002046074964F07EFE20462C6038BD00BF7F
:10352000ACE51708F0C00030B4B10030C8931608FD
:1035300078E4170810B514F0EFF978F08FFE0368FF
:10354000BDE810405B681847FFF7F4BF10B50446AC
:1035500006F0FCFF204614F01DFE204604F032FD6C
:103560002046BDE8104004F09BBE0000FFF7EEBF10
:1035700070B500F5AB450446283528461DF022F904
:1035800024F0ACFB90F9213093B390F840337BB337
:1035900004F5A04304F5F366D3F87C053C306EF0E7
:1035A00083FB0346B7EE001A9A20DFED120A93ED73
:1035B000000A35F09BFC94F9CC3728460021012BFA
:1035C00004F51F6408BF86ED0E0A1CF0F3FEDFED64
:1035D0000A7A94ED287A304620EE270ADFED077A42
:1035E000A7EE270A84ED280ABDE8704024F01EB833
:1035F00070BD00BF00000000CDCCCC3D6666663FCC
:10360000FFF7B6BF10B50121044614F0FFFD60B10D
:10361000114BD3F8580503689B6A984728B9204690
:1036200002F024FD204602F057FD4FF40011204621
:1036300014F0ECFD18B134F069F932F085FC4FF468
:103640008021204614F0E2FD28B134F05FF9BDE896
:10365000104032F07DBB10BD00810030FFF7D2BFBB
:1036600038B50221044614F0D1FD70B10121204685
:1036700014F0CCFD48B9504BD3F8580503689B6A49
:10368000984710B9204602F0F1FC0121204614F0C1
:10369000BDFD10B9204602F01FFD0121204614F0A7
:1036A000B5FD10B9204602F071FD4FF400312046FF
:1036B00014F0ACFD30B104F5A043D3F87C050368E9
:1036C000DB6B98474021204614F0A0FD68B104F55B
:1036D000A145443528466AF005F804F5805393F96E
:1036E000D83713B128466AF0DDF94FF480612046DF
:1036F00014F08CFD20B104F5A14044306AF08AF842
:103700002021204614F082FD68B104F5A045D5F8CB
:10371000580503681B69984780B304F5C043D3F884
:103720000402A6F0B9FB8021204614F06FFD90B38F
:1037300034F0ECF832F030FB1021204614F066FD36
:1037400078B104F5C043D3F80002A3F0D3FA04F52E
:103750006850083087F0BAFA04F565500C30B0F0C4
:1037600027FB4FF6FF71204614F050FD10B304F50F
:103770009B40BDE838406830B2F0AEBF20460FF045
:10378000A9F80028C9D1D5F8580503685B6998479E
:103790000028C2D0C7E74FF48021204614F036FD40
:1037A0000028C5D14FF40021204614F02FFD002839
:1037B000BED1C1E738BD00BF00810030FFF750BF68
:1037C00010B50121044614F021FD10B1204602F08D
:1037D000DDFC8021204614F019FD58B14FF4802102
:1037E000204614F013FD28B934F090F8BDE81040DD
:1037F00032F0AEBA10BD0000FFF7E2BF10B50446CC
:1038000006F058FC204606F0B5FA204606F096FC75
:10381000204606F0AFFD204615F0AAFC2046BDE884
:10382000104004F0CDB90000FFF7E8BF70B50446C2
:103830004FF6FF7114F0EAFC04F5A04528B1D5F865
:103840004C250721204602F0D3FCD5F87C3593F8AF
:103850007C309BB92046FFF7A5F8D5F87C0504F528
:10386000804304F54052016892F872288E6993F8FB
:10387000C413B047D5F87C05ABF0B0FF7AF056F82A
:10388000204615F067FC95F84C3504F5C044044A11
:10389000DB43C3F3C01384F8913D537170BD00BF87
:1038A00085B00030FFF7C2BF2DE9F04100F510539D
:1038B00000F5A04500F5005604461B6805F5B26802
:1038C00005F29457C8F8003006F20C431B683B60C1
:1038D000D6F8BC0300F58C40503035F0D5FA05F22F
:1038E0009C53C5F8980505F5B465D8F800204FF647
:1038F000FF7120461A603B682B6014F087FC38B1DA
:10390000D6F8BC2320460921BDE8F04102F046BCB0
:10391000BDE8F08100F5A04310B5D3F88C45002C2C
:103920004FD093F84D25D1074BD56FF30002012CF2
:1039300083F84D25D3E92D12B2F90820B1F90840DA
:1039400006EE902A0CBF03F5B26203F29C5207EE1A
:10395000104A07BFD2ED007A03F29452D2ED007AFA
:1039600003F5B4620CBFF8EEE66AF8EEE66AD2ED53
:10397000005AB8EEC77A00F5105225EEE66AA7EEB7
:10398000276A67EEA67AD2ED006AE7EE257A92ED15
:10399000037A27EE877AA6EE267ABDEEC77A17EE6F
:1039A000104A0C8192ED007AD3F8B83067EE877A2E
:1039B00092ED037AE6EE477AFDEEE77A17EE902A6B
:1039C0001A8110BD38B5054600F5A0442DED028BD7
:1039D00071B1284613F0E6FDD4F8983540F2E6328E
:1039E0001B1A03F2F31393420CD8BDEC028B38BDC3
:1039F000D4F88C35022BF8D113F0B4FDB0F57A7FF2
:103A0000E7D2F2E7C4F8980500F58C406423503003
:103A100090FBF3F300EE103A9FED0C7BB8EEC00B79
:103A200020EE070BB7EEC08BB0EE480A3DF11AFC52
:103A300004F29C5304F5B46483ED000AB0EE480A26
:103A40003EF176FA84ED000ACFE700BF000000A047
:103A500046DF913F00F501500121083018F09EB972
:103A6000FFF7F8BF10B5044613F0D2FF102120462F
:103A700014F0CCFB98B1204602F044FA4FF4001148
:103A8000204614F0C3FB18B933F040FF32F05CFA63
:103A900004F5C650BDE81040103098F043BC10BD8E
:103AA000FFF7E0BF70B5044606F0F2FF214B4FF67A
:103AB000FF76254604F1780045F83C3B1E4B246513
:103AC000C4E915341D4BC4E917341D4B636620F05F
:103AD00057F804F1940020F053F804F1B00020F0FE
:103AE0004FF8184B04F1CC00A4F8C860C4F8C430F7
:103AF00020F046F8144B154928461D6064F08AFBF7
:103B000004F52270A4F87060A4F88C6020F038F8F6
:103B100004F5297020F034F804F5307020F030F806
:103B20000023204684F8D432C4F8F832012384F804
:103B3000FC3270BD30FB1608312F0208352F020809
:103B4000392F02080000FFFF4CB00030D484170862
:103B500010B5044606F09CFF0A4B04F140002360B8
:103B60000123A38720F00CF804F1500020F008F89E
:103B700004F1600020F004F804F1700020F000F877
:103B8000204610BDFC0517082DE9F04304462DED35
:103B9000028B87B004F5A045FFF712FCA74B04F594
:103BA000625004F5A546236010300C3602F0F6FC96
:103BB00004F5615104F5A1402C3144306AF03EFC1B
:103BC00004F5615304F5A34020336030C5F8CC31CF
:103BD000062385F8D0316DF0B7FF04F5A44004301A
:103BE0006DF0B2FF04F5A4402C307AF0ABFC304607
:103BF000B1F00CF8924B301DB7EE000A9149C5F8B0
:103C00008C32039064F034FF039863F0E3FD10B945
:103C1000012385F8903204F5A54004F5A64604F585
:103C2000A74768305C3660F0AFFD4037864BC5F87B
:103C30003C333046143672F05DFEB742F9D11E2394
:103C400040F2CC60C5F8E4340023A5F8E83420F055
:103C5000F3FBC5F8E00404F5A9406C30BCF0A6FF06
:103C600004F5AA403030BCF0A1FF784A13681BB9B4
:103C700004F5A6433C33136004F5EE48744B04F599
:103C8000AA40B7EE008A08F14008C5F83C335D3021
:103C90000026C5F8588504F5C447AEF081F905F54E
:103CA000B26305F29C5504F5AB4083ED008A4FF4F6
:103CB0000071684B283085ED008A04F5C0450593F6
:103CC00004F5C749644B049409F10809009306AB55
:103CD00013E90C001CF04EF904F5B5400C30B3F0BC
:103CE000E9FD04F5C340B0EE480A2C306EF042F80E
:103CF00004F5C340B0EE480A44306DF02DFF04F5E2
:103D0000C34054301FF03CFF04F5015307F140005D
:103D1000C5F8E4610833C5F8E861C5F8EC612037FF
:103D2000C5F8FC310023C5F8F06185F81932C5F8F3
:103D3000F461C5F8F8611FF023FF04F5C440683052
:103D40001FF01EFF4FF4004344493846C5F88C323B
:103D500064F060FA04F5C540414B10301F607BF001
:103D6000AFF904F5C5407C308CF0DAFE04F5C640AE
:103D7000343065F0B7F93B4B04F5C640C5F8343331
:103D800048308AF01BFB04F5FE5304F5C640364963
:103D900014336430C5F87433344B186064F03AFA65
:103DA000FF233349484685F8983385F8A03364F0FB
:103DB00031FA304B1F6817B12F48BFF0D7FF04F519
:103DC000C740C3F8009004F5DA49283068F0B8F924
:103DD00004F5D84009F130094430A7F08BF904F517
:103DE000DA402830A7F044F8484693F087FB04F502
:103DF000DC4049460430AEF0EDF8204B04F5DC42DF
:103E0000DFF890C0C5F8043E0623643285F8583EBA
:103E10001B4BC3F800C03B46182798B2013301463C
:103E200079431CF801100029F7D1164B1880164B66
:103E30001880164B1F688FB31548BEE7C09E160842
:103E40006093160838B100309C06180834BB003067
:103E50007C9F16082D2F0208B09E1608782417089C
:103E6000D8AE0030A093160880201808F8C00030A3
:103E70008841180890C10030DC93160840F31608FA
:103E800070B100306EB1003040B1003014B100307C
:103E9000FD9316086CE71608CDCC4C3D04F5DC40CC
:103EA0001FED030A1A6004F5E44978306DF054FE02
:103EB00004F5DD4009F15009103006F0E9FD654BCD
:103EC00004F5DD40C5F8903E503006F0E1FD624B50
:103ED00004F5DE40C5F8D03E04F5E0450C30FFF7B0
:103EE000E1FD484606F0D4FD5C4B09F13C00C5F805
:103EF0005032B9F0FFF85A4B04F5E740C5F88C3260
:103F0000783006F0C5FD574B04F5E840C5F8F833A6
:103F10003C3006F0BDFD544B04F5E840A5F878743C
:103F2000C5F83C347C3006F0B3FD504B04F5E94055
:103F3000C5F87C34383006F0ABFD4D4B04F5EA4053
:103F4000C5F8B83405F2F4430C301E605E609E6024
:103F500006F09EFD474B04F5EA40C5F84875C5F8E4
:103F60000C35543006F094FD434B04F5EB40C5F896
:103F70009075C5F85435183006F08AFD3F4B04F5AE
:103F8000EB40C5F89835603006F082FD3C4B04F5F7
:103F9000EC40C5F8E035203006F07AFD394B04F5E9
:103FA000ED40C5F8203605F5D36334301E605E6001
:103FB000FFF7CEFD404606F06BFD334B04F5EE40B7
:103FC000C5F840377C3010F0E1FF04F5F0401C30BC
:103FD00006F05EFD2D4B04F5F040C5F85878C5F8A5
:103FE0001C38603006F054FD294B04F5F140A5F86B
:103FF0009C78C5F86038303006F04AFD254B04F552
:10400000F140C5F8EC78C5F8B0387430FFF7A0FD82
:10401000214B04F5F340C5F8F4380123043085F84A
:104020007D390BF033FE04F5F440483012F0D4F83B
:1040300004F5F540403006F02BFD184B2046C5F83E
:10404000C03A04F5F6431E605E6007B0BDEC028B1B
:10405000BDE8F083A4F7160840F81608CCFB160854
:1040600054FC160894FD16082CFE1608C4FE16080B
:1040700054FF1608A40117083C0217086403170828
:10408000F40317088C0417082C071708FCFC160803
:10409000000B1708DC021708900617089C0B17087E
:1040A00038B5054B0A4601461C68236820461D6842
:1040B000024BA847002038BD08AC0030003100306A
:1040C00038B5037904463BB905682DB1284630F070
:1040D000BDFF284620F0ACF9204638BD334B70B503
:1040E0000360044600F55B5008301FF037FC04F510
:1040F000405393F8982142B9D3F894512DB12846F2
:1041000030F0A4FF284620F093F904F5FB5004F6A4
:10411000847504F63C760430A0F05CFE04F5D750BC
:104120000C30FFF7CDFF04F5D7500430FFF7C8FF80
:1041300004F5D6501C30FFF7C3FF04F5BE5018300D
:104140007AF076FE1A4BC4F8E03AB54204D0083D46
:104150002846FFF7B5FFF8E704F654406DF08AFAF9
:1041600004F638406DF086FA04F61C406DF082FAD1
:1041700004F538606DF07EFA04F664306DF07AFA7A
:1041800004F648306DF076FA0A4BC4F8883094F89B
:10419000703143B9D4F86C512DB1284630F056FF38
:1041A000284620F045F9204670BD00BFACE5170851
:1041B00000761708C827170838B5104B0446036067
:1041C00000F5C04393F8F82D42B9D3F8F45D2DB152
:1041D000284630F03BFF284620F02AF904F5A0439A
:1041E000074AD3F8E004C3F83C2308B120F026F9CD
:1041F0002046FFF773FF204638BD00BFC09E16085B
:104200009C06180810B5BCF0E9FF064C064B186078
:104210002046FFF7B9FC2046044A0549BDE8104096
:104220003DF11AB80031003008AC00300C280130E4
:10423000B941020801207047FA207047014B93F8FA
:104240002208704700610030034BD3F88C05431EF1
:1042500058425841704700BF00810030034BD3F8EB
:104260008C05831E58425841704700BF00810030C2
:10427000034BD3F87C0508B1ACF056BB014870473E
:10428000008100305C9F160870B541690446826960
:1042900041F4E053674D436142F4E0538361C369E5
:1042A00043F4E050E06195F84D05460710D542F41F
:1042B0008E3241F48E31A261616195F84D2550072F
:1042C00006D595F87125D1075CBF43F48E33E361C1
:1042D000636943F4C0436361D5F8580503681B68FC
:1042E00098470238192816D8DFE800F09B0D0D0D0D
:1042F0000D0D150D1515159B159B0D0D0D0D9B0D1C
:104300009B151515150DD4E9062342F4C04243F45C
:10431000C043A261E361484886F0F8FB18B16369C5
:1043200043F080636361444886F09CFB18B1A36945
:1043300043F08063A361404886F0F0FB18B9E3695D
:1043400043F08063E3613D4B1E6846B1192130465E
:1043500065F0C4FA18B1636943F48073636195F83A
:10436000D431DA070DD5A36943F48073A36146B154
:104370001921304665F0F4FA18B1E36943F480730B
:10438000E36160F06FFB98B190F905303BB1D4E97F
:10439000052342F0400243F040036261A3610368D9
:1043A00033B10379DB0742BFE36943F04003E361C4
:1043B000234B93F9442C8AB1D4E9051242F08002D0
:1043C00041F08001A261616193F9442C32B193F80C
:1043D0001C2D1AB1E26942F08002E26193F8403C80
:1043E000013B012B0BD8D4E9052343F4800342F4AD
:1043F0008002A361E369626143F48003E36163695E
:1044000043F080436361A36943F08043A361D5F81F
:104410007C3593F86D301BB9E36943F08043E36169
:1044200070BDA36943F40053A361E36943F40053EF
:1044300070E700BF00810030086B00307CB10030B5
:104440000091003013B54FF4F470CDE900211FF056
:10445000E9FF044628B1DDE9002175F0F7FF024BC2
:104460002360204602B010BDD8A1160808B590F808
:1044700084308B4208D268F0D7FF16224FF4802197
:1044800068F088FF002008BD223150F82100FAE7CB
:1044900008B590F884308B4208D268F0C5FF0F222F
:1044A0004FF4802168F076FF002008BD223150F8DB
:1044B0002100FAE700207047704700000320704792
:1044C00010B5154CD4F8580503681B6898470728A1
:1044D0001CD8032834BF10231823D4F87C2543F0BC
:1044E000400022B192F87C200AB143F0C00040F0B5
:1044F000010010BD0B280DD8DFE800F006060C0601
:104500000C060C060C0C0C061823E6E71038C3B298
:104510000B2BEFD91023E0E700810030014B93F81B
:104520002408704700610030034B93F9B80300384A
:1045300018BF0120704700BF00710030014B93F994
:1045400026087047006100307047000038B5C57814
:104550000B4604463522352D4FF00001184628BF82
:10456000352540F1A3FD04F10C012A46BDE8384091
:1045700040F152BD1FB5184C94F8C61304F51E70D7
:1045800015F05CF978B194F8C61304F51E7015F0B7
:1045900069FB40B194F8C61304F51E7004B0BDE881
:1045A000104015F0A7BB002301930293039318F06A
:1045B0008BFC01A916F0FAFE20B101A83AF00EFC1E
:1045C00004B010BD27F0AEF8B02290F8E03202FB44
:1045D000030090ED370AF3E70061003008B50D4B9A
:1045E000D3F87C05A8B13C306DF05EFB0346B7EE16
:1045F000001A9A2093ED000ADFED070A34F076FCEA
:10460000DFED067A20EE270ABDEEC00A10EE103A62
:1046100018B208BD00810030000000000000C84250
:104620002DE9F04FDFF8DC808DB00446344F0425CF
:1046300008F5405617F8019BB8F97C3809F1FF3AA4
:1046400043FA0AF3D90744D5207C6FF051F883462A
:10465000207C6FF079FF00F121039B4505D2207C7F
:104660000DB0BDE8F04F6EF0E9BABAF1030F30D8E3
:10467000DFE80AF002363B40D6F8000203689B6888
:10468000984700F18C03D3F800B0D3F804A0D3F816
:104690000CC018695969D3F818E0DA691B6ACDF8BB
:1046A00029206222CDF82530212307900891C221CC
:1046B000207CCDF80CB0CDF810A0CDF814E0CDF8EA
:1046C00018C08DF82490CDE90032192303AA6FF0A9
:1046D00089F8013D15F0FF05ACD10DB0BDE8F08FB4
:1046E000D6F800020368DB68CAE7D6F80002036860
:1046F0001B69C5E7D6F8043203F5DE73C3E700BFD4
:10470000C0A216080061003007B50190B1F0F2FFB9
:1047100028B1019903B05DF804EBB1F0ADBF03B06F
:104720005DF804FB014809F045B900BF0CA000305A
:104730000B4B70B5D3F8BC3305460E461446DB0769
:1047400003D511460748AEF003F821460648B2F0FB
:10475000D1FB224631462846BDE8704074F08CBB40
:1047600000710030049F0030107F003010B588B019
:10477000044671F035FC0C4BD3F87C0538B90B4A74
:104780000621204608B0BDE8104071F01FBB694605
:104790001E22ACF0D1F86B46054A0621204671F086
:1047A00015FB08B010BD00BF008100305C9F1608EB
:1047B000AEF51608034A92F8B030013382F8B030F3
:1047C00070F07CBB008100300148A6F0C3BE00BF82
:1047D000449D003007B5084601911FF0D7FA38B163
:1047E0000448019903F006F9002003B05DF804FBCA
:1047F0000420FAE70CAC0030014803F015BE00BFFE
:1048000000310030014803F099BD00BF0031003095
:1048100070B58B8B06460C46CD2B15D10D4D95F8FA
:10482000F11205F524707AF081FC68B195F8F11267
:1048300005F524707AF0F8FC30B9DFED070A94ED45
:10484000020A064803F0B6F821463046BDE870403B
:1048500070F06EBB00910030000000000CAC003026
:10486000074B10B540F6CD3493F9A82340F6CD138D
:10487000002A08BF1C4670F0D9FA204310BD00BFC3
:104880000091003000B5002389B002930393049394
:1048900005930693079318F017FB02A916F086FDFF
:1048A000B0B118F011FB17F083F905A88DED050ADA
:1048B000CDED060A8DED071A3AF090FAF1EE047A82
:1048C00020EE270AFCEEC07ACDED017A9DF80400B7
:1048D00009B05DF804FB000010B504461FF0A8FD08
:1048E000204610BD10B50C4C94F94C35002B0FDB55
:1048F000D4F8580503685B6C984758B9D4F8580544
:1049000003681B6C984700280CBF0220032010BDD1
:104910000120FCE70420FAE70081003008B5134BC2
:1049200093F84D0510F020001ED0D3F85805036809
:104930005B6D984707EE900AF2EE046AB8EE677A6C
:10494000DFED0B7A27EE277ADFED0A7AB4EEE77A0D
:10495000F1EE10FA58BFB0EE677AC7EE267AFCEE99
:10496000E77A17EE903A98B208BD00BF0081003098
:104970000AD7233C00FF7F4738B5F7EE000A91EDD8
:10498000050A04460D4634F04BF928B12146054886
:10499000BDE8384003F07CBD29462046BDE83840DC
:1049A00073F0AEB90031003008B5094B93F84D05EE
:1049B00010F020000AD0D3F8580503681B6D984703
:1049C00034F062FAC82390FBF3F0C0B208BD00BF18
:1049D0000081003000B5002389B002930393049353
:1049E00018F072FA02A916F0E1FCD8B118F06CFACE
:1049F00017F0DEF8F0EE607AF1EE400AB1EE670AE9
:104A00003DF192FCDFED097A20EE270A34F0BEF981
:104A1000F6EE007A20EE270AFCEEC07ACDED017AA0
:104A20009DF8040009B05DF804FB00BFE02E65426C
:104A3000044B187820B9044B93F84E05C0F380104E
:104A4000704700BFD4AE003000810030124B07B574
:104A500093F84D0510F020001AD003F58053D3F8D9
:104A6000040200F513703AF0B9F9DFED0C7A20EE8C
:104A7000270ADFED0B7AB4EEE70AF1EE10FA58BF21
:104A8000B0EE670AFCEEC07ACDED017A9DF8040025
:104A900003B05DF804FB00BF00810030CDCC4C3D7D
:104AA00000007F43084B93F8892A52B993F8712587
:104AB000920606D193F94C35002BACBF042003209D
:104AC00070470520704700BF0081003008B5074BD4
:104AD00093F97038032B03D0BDE8084071F08EB90C
:104AE000034A022171F072F9042008BD0061003010
:104AF000B49F1608084BD3F8BC23920701D46FF07B
:104B00006BBF03F50053DFED057A93ED760AB8EE3F
:104B1000C00A20EE270A7047007100300AD7233CF4
:104B200010B594B0044603A81FF02AF81C4B03A943
:104B3000D3F858050368DB6C984778B3002103A8C5
:104B40001FF0E8F850B3247CBFF03EF9059B962295
:104B5000DDED047A57210893069BF8EEE77A9FED86
:104B6000117A0993002367EE877A07900B9320460A
:104B70000C930D930E930F931093119312934FF682
:104B8000F853CDED0A7AADF84C3000238DF84E3055
:104B90003323CDE9003207AA6EF024FE14B010BD15
:104BA000008100300AD7233C30B5844C05462DEDFA
:104BB0000A8BD4F8580599B003685B6A98470028B7
:104BC00067D004F50054D4F89035062B00F2E1804C
:104BD000DFE803F004040463A0C35F00784840F6F4
:104BE000F8540CF0E7FF9FED778A9FED770AF0EE1F
:104BF000489AB0EE48AAF0EE488AF0EE48AAB0EE25
:104C000048BA90ED027B90ED005BF7EEC76BB7EE14
:104C1000C55B90ED047B0BA88DED0B5ACDED0C6AB6
:104C2000B7EEC77B8DED0D7A39F0BAFCB0EE40CA15
:104C3000F0EE60BAB0EE419A2D7CBFF0C5F80023CB
:104C40008C22B1EE499A0B901593F1EE688A169377
:104C50000123B1EE488A55218DF85E303323284672
:104C60008DED0CCACDED0DBA8DED0E9A8DED0FBA0E
:104C7000CDED10AACDED118A8DED12AACDED139ACE
:104C80008DED148AADF85C40CDE900320BAA6EF0D0
:104C9000A9FD19B0BDEC0A8B30BD49484FF4406402
:104CA0000CF088FF9FED480A90ED027B90ED005BD1
:104CB000F7EEC76BB7EEC55B90ED047B0BA88DEDEF
:104CC0000B5ACDED0C6AB7EEC77B8DED0D7A39F03E
:104CD00067FC3B48F0EE60BAB0EE419AB0EE40CAD5
:104CE0000CF06CFF9FED380A39F05AFC3448B0EEF6
:104CF00040BAF0EE60AAF0EE418A0CF063FF9FED3F
:104D0000320A39F04DFCF0EE609AB0EE40AAB0EEF7
:104D1000418A91E72A4840F607440CF04FFF9FED87
:104D20002A0A39F03DFC2648B0EE40BA9FED259A9C
:104D3000F0EE60AAF0EE418A0CF044FF9FED220AEB
:104D4000F0EE49BA39F02CFCB0EE49CAB0EE40AAF8
:104D5000F0EE609AB0EE418A6EE7194840F63F44A3
:104D6000DFED188A0CF02EFF9FED170A39F018FCC2
:104D7000F0EE68AAB0EE40AAF0EE609AB0EE418A7A
:104D8000B0EE68BAB0EE689AF0EE68BAB0EE68CAF3
:104D900052E79FED0C8A0024F0EE489AB0EE48AA44
:104DA000F0EE488AF0EE48AAB0EE48BAB0EE489A63
:104DB000F0EE48BAB0EE48CA3EE700BF00810030CE
:104DC00054A60030000000000AD7233C2DE9F04132
:104DD000414D04462DED088B95F84D358CB0990664
:104DE00075D505F58057DFED3D8A9FED3D0AD7F873
:104DF00000023C3039F0D4FB8DED041A21EE281A64
:104E0000D5F85865CDED030A20EEA8AA8DED020A6B
:104E10003046BDEEC11A94F8108060EE28AA11EE5B
:104E2000103A1DB233681B6D984707EE900A304662
:104E3000F8EEE77A67EEA87AFDEEE77A17EE903A99
:104E40001CB233685B6D984707EE900AD7F80432BE
:104E5000B8EE678ADFED237A986828EE288A93ED0A
:104E60008E9BB4EEE78AF1EE10FA58BFB0EE678A77
:104E7000A9F076FA3368B0EE40BA30469B6D984799
:104E8000B7EECBBABCEEC88A0023B72220EE280AC0
:104E900039EE4B9B089318EE103A3E214046CDED7B
:104EA00005AAB7EEC99BADF82C301A238DED06AAE2
:104EB0008DED090A29EE289AADF82850ADF82A4060
:104EC000CDE9003205AA8DED079A6EF08BFC0CB08F
:104ED000BDEC088BBDE8F081008100300AD7233C8F
:104EE0009F0CB34500FF7F471B4B2DE9F04F2DED85
:104EF000028BD3F800328DB0047CD3F854809F6DC0
:104F0000DE6D1D6E93ED198AD3F868B0D3F86CA0EE
:104F1000D3F8AC90BEF058FF002316220290532124
:104F20008DF82C30252320468DED078ACDF820B052
:104F3000CDF824A0CDF82890CDF80C8004970596E4
:104F40000695CDE9003202AA6EF04CFC0DB0BDEC26
:104F5000028BBDE8F08F00BF0091003010B52DED41
:104F6000048B84B017F0B0FF044668461EF008FEBC
:104F70006946204616F0E4F9134B93F84D0510F0FE
:104F800020001DD003F58053DDED017AD3F8043203
:104F9000B8EEE79A986893ED8E8BA9F0E1F9B7EE39
:104FA000C00ADFED0A7A38EE408BB7EEC88B38EED8
:104FB000098A28EE278ABDEEC88A18EE103A18B280
:104FC00004B0BDEC048B10BD008100300AD7233C37
:104FD00070B58A7A06464B7A0C4643EA0223CA7AAF
:104FE00043EA02439D2B1BD1104D95F8F11205F5B4
:104FF00024707AF09BF898B195F8F11205F52470B9
:105000007AF012F960B9D4ED057A9FED090AF8EE4D
:10501000E77ADFED080A084827EE800A02F0CAFCAA
:1050200021463046BDE870406FF060BE0091003010
:105030000AD7233C000000000CAC003008B590F803
:10504000E63153B9C06B03681B6A9847B0F5005F3F
:1050500028BF4FF4005080B208BD0020FCE70000DC
:10506000034BD3F87C0508B190F87400704700BF7B
:105070000081003008B5034BD3F8580503681B685E
:10508000984708BD00810030024B93F84D05C0F3EE
:10509000401070470081003070B52C4E05460C461C
:1050A000D6F858052DED028B036886B091ED018A84
:1050B0005B6A984750B9BDEEC88A18EE103ADB0714
:1050C00004D4022006B0BDEC028B70BDD4E904010B
:1050D00035F0CAF90028F4D002A81EF051FD02AA4A
:1050E0002146284674F0D6F80028EAD0184902A8CC
:1050F0001EF058FE03460028E3D1DFED160A0246F3
:10510000009002A9B0EE600A13480CF04BFBD8B136
:10511000D6F8580503685B6A9847044608B1002032
:10512000D0E7022204210D4806F09CF860B1DFEDC3
:10513000090A2346224602A9B0EE600A06480094F6
:105140000CF030FB0028EAD10420BBE700810030DE
:10515000D49200300000000054A60030003100302E
:1051600010B5D1ED007A0446FCEEE77A17EE903ADE
:1051700013F0FF030FD10F4BD3F8580503681B6FD3
:10518000984708B1002010BD0B4A2046062170F058
:105190001DFE0420F7E7012B09D1064BD3F8580573
:1051A00003685B6F98470028ECD1044AEDE70220C2
:1051B000E9E700BF00810030D89F1608E89F160875
:1051C0008A8B82B0C02A1DD0C12A1ED0202A1FD1AE
:1051D000D1ED007AF5EEC07AF1EE10FA1BDD9FED0D
:1051E0000F7AF4EEC77AF1EE10FA14D8FCEEE77AF3
:1051F0000B4A0020CDED017A9DF80430A2F8123E52
:1052000002B0704702B0FFF747BF02B0FFF7A8BF78
:1052100002B074F037B90320F2E700BF00007F430B
:105220000071003010B5002304462DED028B8CB0C8
:1052300003930493059317F047FE03A916F0B6F8FD
:1052400050B317F041FE16F0B3FCF0EE607A8DED2E
:10525000060ACDED070AF1EE400AB1EE670A247C9A
:105260008DED081A3DF160F806A8B0EE408A39F0DD
:10527000B5FD089BDFED0A7A01220B930C2328EE83
:10528000278AA82120468DED0A0ACDE9003209AA15
:105290008DED098A6EF0A6FA0CB0BDEC028B10BD44
:1052A000E02E65422729F7B504460E4613D00AD8EA
:1052B00019290ED0242923D03146204603B0BDE859
:1052C000F04074F095BB37292AD0A1F13903012BA6
:1052D000F2D801200EE0FFF7B1FE0546207C6FF00A
:1052E00033F900F11203217C9D4205D208466DF08E
:1052F000A5FC002003B0F0BD214866F0F7F9E8E70F
:10530000FFF79CFE0546207C6FF01EF900F10C03B0
:105310009D4201D2207CEAE72046FFF783FFD8E7D1
:10532000FFF78CFE0546207C6FF00EF900F1260396
:10533000217C9D42DAD3134892F026FA124B1F6863
:10534000002FC6D02046FFF779FE0546207C6FF07F
:10535000FBF800F126039D424FF00005DAD30DF172
:10536000060231462046ADF8065071F015FE0028C1
:10537000AFD0BDF806203846217C8EF087FDA8E727
:10538000A8940030309E00308CC1003070B52DEDF7
:10539000028B8B8B90B004460E46C12B00F020820E
:1053A00060D8542B00F0C98017D8162B09D8102BC1
:1053B0000AD9113B052B07D8DFE803F0DA0606E02F
:1053C000E3BF202B00F0E0803146204610B0BDEC5A
:1053D000028BBDE8704075F08BBDB22B00F0F980F8
:1053E00039D8552B00F0CD80732BEDD1D1ED007A5B
:1053F000F5EEC07AF1EE10FAC0F2E5809FEDBA7AD0
:10540000F4EEC77AF1EE10FA00F2DD8091ED030AB6
:105410009FEDB68AF0EEC07AF4EEC87AF1EE10FA9B
:1054200040F1CA80D6ED037AD6ED010AF4EEC87ACF
:10543000D6ED027A96ED000AFDEEE77AAC48F1EE81
:1054400010FACDED037AACBF012200229DF90C10B9
:1054500002F030FA8AE0BD2BB6D10221A54807F050
:105460004DF982E04AF21142934200F0288141D87E
:10547000B3F5967F00F0D28027D8D02B00F0E380E0
:10548000D12BA1D1D1ED017AFCEEE77ACDED037AF3
:10549000D1ED007AFCEEE77ACDED047AD1ED047A15
:1054A0009DF81020FCEEE77ACDED057A9DF81430DA
:1054B00000939DF80C30D1ED030A91ED020A0146EC
:1054C0008D4811F005FE04467EE040F6D812934266
:1054D0007FF47AAFD1ED017AFCEEE77ACDED037A75
:1054E0009DF80C30012B40F0E880002183488EF0BD
:1054F000A3FE3BE04AF21342934200F030814AF2AD
:105500006862934200F0B5804AF2124293427FF4FF
:105510005BAF7B4D95F8714514F0010426D1D5F8A9
:105520007C3593F87C30002B40F0FC80012205F59F
:1055300023701146FDF786F846E0D6ED027A9FED1E
:105540006B7AF0EEE77A96ED060A6D4BF4EEC77AC9
:10555000DFED6C7AD3F8580520EE270AF1EE10FA49
:105560004CBF0121002113F0C7F960B300242BE0E8
:1055700002220521604805F075FEF6E702220621A9
:10558000F8E702220921F5E7D1ED007AF5EEC07ABD
:10559000F1EE10FA17DD9FED5C7AF4EEC77AF1EECA
:1055A00010FA10D8FCEEE77A584ACDED037A9DF850
:1055B0000C30A2F8123ED9E7F7EE000A33F030FBC8
:1055C00000287FF42FAF0424204610B0BDEC028BDE
:1055D00070BD91ED010AB5EEC00AF1EE10FAF2DDF0
:1055E0009FED487AD1ED007A20EE070A9FED487AC8
:1055F000434BF4EEC77AD3F85805F1EE10FA03687E
:1056000002DD5B6E9847B0E79FED427AF4EEC77A11
:10561000F1EE10FACCBF1B6EDB6DF3E70222032123
:10562000354805F01FFE0028CDD033480121FDF795
:1056300047F9394890F8483F012B97D000F6487059
:105640003CF022FA92E7D1ED007AFCEEE77A17EE11
:10565000903A99B2012904D0022906D00029B2D18A
:1056600000212E487EF0B6FC80E7234803F004FDBD
:105670007CE72B48B0F092FF0028A4D0D6ED017A49
:10568000FCEEE77ACDED037A9DF80C40012C08D0B2
:10569000022C0CD0002C96D11C4B002283F8F42D48
:1056A00092E796ED020A1E48B0F0BAFF5EE796ED6B
:1056B000030A1B48B0F0C8FF58E7012116E710485D
:1056C00090F87135DB073FF551AF02220521A0F5B7
:1056D000A04005F0C7FD00287FF448AF022206482D
:1056E000114605F0BFFD41E70000B443000000345F
:1056F0000CAC00300CA00030003100308894003039
:10570000008100300000C84200007F43007100307B
:105710009A9939403333F33F00910030649400305C
:10572000E87E003095F94C350222002B12DA052173
:10573000304805F097FD00283FF418AF96ED000AB9
:105740000121DFED2D7AD5F8580520EE270A13F058
:10575000D3F839E70921274805F084FD34E7274DC0
:1057600095F8714514F001047FF400AFD5F87C354D
:1057700093F87C30002B3FF4F9AE95F94C35002BB3
:1057800006DA0122082105F52370FDF717F81BE75B
:10579000D1ED007A9FED1A7AF0EEE77AF4EEC77A4F
:1057A000F1EE10FA0CD502221121124805F05AFD33
:1057B000002893D040F6C411124809F0FBFB03E720
:1057C000D5F8580503681B68984704283FF4CEAE07
:1057D000D5F8580503681B6898471428E3D1C5E637
:1057E00007A93046032272F05DFC07A92046FFF7A7
:1057F000B7FC68E6003100300000C842008100308C
:1058000000000034F8A40030F6EE007A08B591EDFF
:10581000007AB4EEE77AF1EE10FA06DD01220521F6
:105820000348FCF7CBFF002008BD0420FCE700BFC5
:105830008C8300302DE9F0472DED028B8A7AA2B0DF
:105840004B7A05460C4643EA0223CA7A43EA0243EE
:10585000562B00F0458210D8522B00F08480542B38
:1058600000F00C81452B1FD02146284622B0BDEC0C
:10587000028BBDE8F04775F00FBD872B12D8852B42
:1058800000F229836D2BEFD10821894812F0BEFC6C
:1058900021460246284622B0BDEC028BBDE8F04707
:1058A00070F01EBCA62BEEE7824ECA79B6F92438FA
:1058B0009A4253D1CA784FF000080C3114A80B2A31
:1058C00028BF0B22CDE91488CDF857803FF1A4FB07
:1058D0009DF85A20B6F922389A423FD1BDF954902A
:1058E000C1453BDB06F50056BEF06EFA9FED720A2D
:1058F00007464FF47A73BDF95220CDE900082846D7
:10590000D6F8B41073F006FE01239FED6B0A28460B
:10591000BDF95020CDE900734FF47A73D6F8B81072
:1059200073F0F8FD9FED650A43464A462846CDE9E7
:105930000078D6F8BC1073F0EDFD9FED5F0A4FF4D0
:105940007A73BDF956202846CDE90078D6F8C01004
:1059500073F0E0FD73F006FFC0F8A07122B0BDEC5B
:10596000028BBDE8F087CD782722002114A8272DCF
:1059700028BF27253FF19AFB04F10C0114A82A4601
:105980003FF14AFB4E4BD3F8580503685B6A9847D2
:105990000028E3D09DF876506F06DFD400244FF046
:1059A0007E532E06109313941294119428D510A8A8
:1059B00037F0A6FE43480BF033FC9DED1C0A06466B
:1059C00000282BD0B7EE001A40F28940FFEE000A03
:1059D00033F08CFA0C940CAA0D940E94EC075CBF77
:1059E000199B0C93A80737485CBF1A9B0D93690756
:1059F00010A95CBF1B9B0E9333460BF019FCADE75F
:105A0000159B10A81093169B1193179B1293189B2C
:105A1000139337F07BFE0028A0D0CBE7DFED2A0AF6
:105A2000B7EE001A40F28C4033F060FAF6EE000A4E
:105A3000B0EE408A33F0F4F8E8B9B6EE000A234B32
:105A4000D3F80832B4EEC08AF1EE10FA08DD38EE71
:105A5000400A30EE008A93ED070A28EE000AB9E703
:105A600030EE480AD3ED087AF0EEE77A30EE000A1D
:105A700027EEC00AAEE79FED140AABE7204614A953
:105A8000FEF764FD0E4BD3F8580503685B6A984730
:105A900000283FF463AF9DF88430012B1AD0DA1F41
:105AA000022A17D9012107480BF058FB56E700BF1F
:105AB00000310030006100300000FA4400007A44F8
:105AC0000081003054A6003000000000009100303A
:105AD0000000C842BDF88050AA0505F0380805F45A
